:020000040800F2
:10000000B0080020F51E0008CD1E0008CF1E000815
:10001000D11E0008D31E0008D51E000800000000F5
:10002000000000000000000000000000D71E0008D3
:10003000D91E000800000000DB1E0008DD1E0008BD
:100040001D1F0008211F0008251F0008291F000888
:100050002D1F0008311F0008351F0008391F000838
:100060003D1F0008411F0008451F0008491F0008E8
:100070004D1F0008511F0008551F0008591F000898
:100080005D1F0008611F0008651F0008691F000848
:100090006D1F0008711F0008751F0008791F0008F8
:1000A0007D1F0008811F0008851F0008891F0008A8
:1000B0008D1F0008911F0008951F0008991F000858
:1000C0009D1F0008A11F0008A51F0008A91F000808
:1000D000AD1F0008B11F0008B51F0008B91F0008B8
:1000E000BD1F0008C11F0008C51F0008C91F000868
:1000F000CD1F0008D11F0008D51F0008D91F000818
:10010000DD1F0008E11F0008E51F0008E91F0008C7
:10011000ED1F0008F11F0008F51F0008F91F000877
:10012000FD1F000801200008052000080920000824
:100130000D200008112000081520000819200008D3
:100140001D20000821200008252000082920000883
:100150002D20000831200008352000083920000833
:100160003D200008412000084520000849200008E3
:100170004D20000851200008552000085920000893
:100180005D20000861200008652000086920000843
:100190006D200008712000087520000879200008F3
:1001A0007D200008812000088520000889200008A3
:1001B0008D20000891200008952000089920000853
:1001C0009D200008A12000087CB50400012600F055
:1001D000FBFB0500002C01D101205AE0206A4028D9
:1001E00094F84000012801D1022052E0012084F857
:1001F000400094F8410000280AD1002084F8400013
:10020000200000F0E0FB41F28831200000F0B4FA59
:100210002068006830F4F850A168491E50EA0120B7
:1002200021680860A06C00902B0000222021200093
:1002300000F0A4FA0100C9B2002926D121680A6899
:1002400014490A40616852EA0162E1680A43E169BF
:100250000A43216A0A4321680A6021684A680E49F4
:100260000A40216952EA014261690A43A1690A43CD
:1002700021684A602168096851F001012268116013
:1002800000216164012184F84110002184F84010AC
:10029000C0B276BD2FFFFF00FEF8E0FF10B50400EE
:1002A000002C01D101201AE094F84000012801D16E
:1002B000022014E0012084F8400020680068400813
:1002C000400021680860200000F084FB002060648A
:1002D000002084F84100002084F84000002010BD78
:1002E0002DE9F84304000D0016005FF0010800F04E
:1002F0006BFB0700A8690028E8690028286A002825
:1003000094F84000012801D102203DE0012084F84A
:10031000400094F8410001282FD1002060640220A1
:1003200084F8410000963B0000222021200000F0CC
:1003300025FA81464846C0B2002820D10022290073
:10034000200000F044FA686A002812D100963B00B1
:1003500001220221200000F011FA81464846C0B275
:1003600000280CD102202168C860012084F84100D7
:1003700005E0012084F8410001E05FF0020900205F
:1003800084F840004846C0B2BDE8F2832DE9F84346
:1003900005000C001600002700F016FB80462868B8
:1003A00010F1200995F84000012801D102205EE0FB
:1003B000012085F8400095F84100012850D1002027
:1003C0006864002C45D0122085F841002868006937
:1003D000401CE86228680069401CA8626C622868BA
:1003E000406930F0406029684861E86A002815D00B
:1003F0000096434601220421280000F0BFF90700BF
:100400003800C0B2002809D1686A411C69620078CE
:1004100089F80000E86A401EE862E6E73800C0B2EA
:10042000002812D10096434601220221280000F044
:10043000A5F907003800C0B2002806D102202968BB
:10044000C860280000F04CF90700012085F8410041
:1004500008E0686C50F0080068640120070001E0C3
:1004600002200700002085F840003800C0B2BDE837
:10047000F2832DE9FC4705000C001600002700F070
:10048000A3FA80462868D0F81890286810F1200A4E
:1004900095F84000012801D1022063E0012085F891
:1004A000400095F84100012855D100206864002CD7
:1004B0004AD0222085F8410028680069401CA863C2
:1004C00028680069401C68632C632868406930F024
:1004D000406050F08060296848612868C0F8189032
:1004E000A86B002815D0009643460122062128005B
:1004F00000F044F907003800C0B2002809D1286B89
:10050000411C29639AF800100170A86B401EA86373
:10051000E6E73800C0B2002812D100964346012217
:100520000221280000F02AF907003800C0B2002894
:1005300006D102202968C860280000F0D1F8070021
:10054000012085F8410008E0686C50F008006864FC
:100550000120070001E002200700002085F840008C
:100560003800C0B2BDE8F6872DE9FC4704000D0055
:1005700016001F005FF0010800F026FA8146A86906
:100580000028E8690028286A002894F8400001281B
:1005900001D102204CE0012084F8400094F8410091
:1005A00001283ED100206064422084F84100009779
:1005B0004B4600222021200000F0E0F88246504601
:1005C000C0B200282FD13068216888627068216825
:1005D0004862B0682168C8622068016831F440014F
:1005E0003069014351F4800120680160F068A8621D
:1005F0005FF000622900200000F0E9F800974B4608
:1006000001220821200000F0B9F882465046C0B20D
:10061000002808D108202168C860012084F8410022
:1006200001E05FF0020A002084F840005046C0B2AA
:10063000BDE8F6872DE9F84304000D0016005FF0D1
:10064000010800F0C1F90700A8690028E86900283E
:10065000286A002894F84000012801D102203DE0DA
:10066000012084F8400094F8410001282FD1002097
:100670006064822084F84100A06C00903B0000225E
:100680002021200000F07AF881464846C0B20028B8
:100690001FD12068016831F00801706801432068AB
:1006A0000160706808280BD1306821680863102049
:1006B0002168C8602068006850F4801021680860D4
:1006C0005FF040622900200000F081F801E05FF057
:1006D0000209002084F840004846C0B2BDE8F28319
:1006E0007CB50400002500F06FF9060094F8410085
:1006F00080073ED5002084F840002068006840074D
:1007000011D52068006830F0040021680860E06BB3
:1007100000F07EF905002800C0B2002803D0606C0C
:1007200050F0040060642068006850F00200216806
:100730000860A06C0090330001220221200000F02C
:100740001DF805002800C0B200280BD10220216846
:10075000C860A06C0090330000222021200000F02F
:100760000DF805002800C0B2002802D1012084F84D
:1007700041002800C0B276BD816470472DE9F04188
:1007800005000E0090461F00069C286880683042D5
:1007900001D0012000E000204146C0B2C9B2884229
:1007A00012D014F1010FF0D0002C04D000F00CF99D
:1007B000C01B8442E9D2042085F84100686C50F0E7
:1007C00001006864012000E00020BDE8F08110B461
:1007D0004B6A002B06D0B2F1406F03D08B6A5B1ED0
:1007E000046823618B69002B79D00B6A002B3ED003
:1007F0008B680468E361CB69002B20D0CC6A0B6B5B
:100800001C434B6B1C434B6A1C434B6954EA8344A7
:100810000B691C430B6A1C43CB681C43CB691C430C
:100820008B691C430B681C43144303685C61B2F181
:10083000406F00F0C6804B680468A361C1E0CC6AD9
:100840000B6B1C434B6B1C434B6A1C434B6954EAB8
:1008500083440B691C430B6A1C43CB691C438B69A3
:100860001C430B681C43144303685C61A9E0CB691B
:10087000002B1ED0CC6A0B6B1C434B6B1C434B6A8A
:100880001C434B6954EA83440B6A1C43CB681C43EA
:10089000CB691C438B691C430B681C4314430368DE
:1008A0005C61B2F1406F00F08C804B680468A3611A
:1008B00087E0CC6A0B6B1C434B6B1C434B6A1C439D
:1008C0004B6954EA83440B6A1C43CB691C438B6914
:1008D0001C430B681C43144303685C6171E00B6AA2
:1008E000002B39D08B680468E361CB69002B1DD0E5
:1008F000CC6A0B6B1C434B6B1C434B6A1C434B6910
:1009000054EA83440B691C430B6A1C43CB681C43A9
:10091000CB691C438B691C43144303685C61B2F1CF
:10092000406F4ED04B680468A3614AE0CC6A0B6B01
:100930001C434B6B1C434B6A1C434B6954EA834476
:100940000B691C430B6A1C43CB691C438B691C431A
:10095000144303685C6134E0CB69002B1BD0CC6A84
:100960000B6B1C434B6B1C434B6A1C434B6954EA97
:1009700083440B6A1C43CB681C43CB691C438B69C3
:100980001C43144303685C61B2F1406F19D04B689B
:100990000468A36115E04B6A002B12D0CC6A0B6B84
:1009A0001C434B6B1C434B6A1C434B6954EA834406
:1009B0000B6A1C43CB691C438B691C4314430368BB
:1009C0005C6110BC7047704701480068704700BF09
:1009D000AC000020704730B4002513E050F8042B21
:1009E000D30744BFA9F101039A18091F042942F84B
:1009F000045BFAD213468C0744BF15809B1CC907C1
:100A000048BF1D7050F8041B0029E7D130BC704767
:100A100070B50400A56DFFF7D7FF060094F8350008
:100A2000022806D080206065002084F83400012070
:100A30003BE02068006830F01600216808602068FC
:100A4000406930F0800021684861206C002802D1A4
:100A5000A06C002805D02068006830F008002168EC
:100A6000086020680068400840002168086020682D
:100A70000068C0070ED5FFF7A7FF801B0628F6D336
:100A800020206065002084F83400032084F83500BD
:100A900003200AE03F21E06D8140A960002084F836
:100AA0003400012084F83500002070BD2DE9FC41A0
:100AB00004000026002C01D10120D8E12078C007D5
:100AC0006DD5DFF89405016811F00C01042909D0F7
:100AD000006810F00C0008280ED1DFF880050068CF
:100AE000400209D5DFF86C050068800357D56068BF
:100AF000002854D10120BAE16068B0F5803F06D1EA
:100B0000DFF85005016851F48031016026E060682B
:100B100000280AD1DFF83C05016831F4803101601A
:100B2000016831F48021016018E06068B0F5A02F01
:100B30000AD1DFF82005016851F4802101600168C5
:100B400051F48031016009E0DFF80805016831F4F3
:100B500080310160016831F4802101606068002803
:100B60000ED0FFF731FF0500DFF8E80400688003CE
:100B700015D4FFF729FF401B6528F5D3032076E144
:100B8000FFF722FF0500DFF8CC040068800306D5DC
:100B9000FFF71AFF401B6528F5D3032067E1207893
:100BA000800752D5DFF8B004016811F00C0F09D0AE
:100BB000006810F00C00082816D1DFF8A0040068C7
:100BC000400211D4DFF88C040168890704D5E1687C
:100BD000012901D001204AE1016831F0F8012269C0
:100BE00051EAC201016030E0E06800281AD0DFF865
:100BF0006474386850F001003860FFF7E5FE0500C6
:100C00003868800706D4FFF7DFFE401B0328F7D3C0
:100C100003202CE1386830F0F800216950EAC10067
:100C2000386012E0DFF82C74386840084000386003
:100C3000FFF7CAFE05003868800706D5FFF7C4FE37
:100C4000401B0328F7D3032011E12078000728D5A3
:100C50006069002812D0DFF80874386850F001008D
:100C60003860FFF7B1FE05003868800719D4FFF738
:100C7000ABFE401B0328F7D30320F8E0DFF8E07356
:100C80003868400840003860FFF79EFE050038686D
:100C9000800706D5FFF798FE401B0328F7D30320F3
:100CA000E5E02078400740F18780DFF8C0733868BE
:100CB000C0000AD4386850F080503860386810F0AE
:100CC00080500090009801200600DFF8A483D8F837
:100CD0000000C00513D4D8F8000050F48070C8F8A4
:100CE0000000FFF771FE0500D8F80000C00506D42B
:100CF000FFF76AFE401B6528F6D30320B7E0A06823
:100D0000012806D1DFF86C03016851F00101016090
:100D100025E0A06800280AD1DFF8580301684908D7
:100D200049000160016831F00401016017E0A0682A
:100D300005280AD1DFF83C03016851F00401016085
:100D4000016851F00101016009E0DFF82803016842
:100D5000490849000160016831F004010160A068A0
:100D6000002810D0FFF730FE0500DFF80803006808
:100D7000800719D4FFF728FE401B41F289318842D1
:100D8000F3D3032073E0FFF71FFE0500DFF8E40252
:100D90000068800708D5FFF717FE401B41F2893134
:100DA0008842F3D3032062E03000C0B2012803D1AF
:100DB000386830F080503860A069002856D0DFF8DD
:100DC0009802006810F00C0008284DD0A069022895
:100DD00037D1DFF88072386830F080703860FFF704
:100DE000F3FD80463868800107D5FFF7EDFDB0EBD5
:100DF00008000328F6D3032039E0E169206A0143A3
:100E0000606A51EA8011A06A4008401E51EA004120
:100E1000E06A51EA006151F00051DFF840020160E0
:100E2000386850F080703860FFF7CEFD05003868F4
:100E300080011BD4FFF7C8FD401B0328F7D3032014
:100E400015E0DFF81072386830F080703860FFF716
:100E5000BBFD05003868800108D5FFF7B5FD401BD4
:100E60000328F7D3032002E0012000E00020BDE8C2
:100E7000F6812DE9F04104000D000026002C01D17F
:100E800001209FE0DFF8F071386810F00F00A842F1
:100E90000BD238680009000128433860386810F028
:100EA0000F00A84201D001208CE02078800719D5DE
:100EB0002078400705D5DFF8A001016851F4E05122
:100EC00001602078000705D5DFF88C01016851F436
:100ED00060410160DFF880110A6832F0F002A0681A
:100EE00002430A602078C00737D56068012806D120
:100EF000DFF860010068800311D4012062E06068BF
:100F0000022806D1DFF84C010068800107D40120D7
:100F100058E050480068800701D4012052E0DFF813
:100F20003881D8F800108908890060680143C8F842
:100F30000010FFF749FD0600D8F8000010F00C0083
:100F40006168B0EB810F08D0FFF73EFD801B41F2D6
:100F500089318842F0D3032034E0386810F00F0064
:100F600085420BD238680009000128433860386890
:100F700010F00F00A84201D0012023E020784007A4
:100F800006D535490A6832F4E052E06802430A6047
:100F90002078000707D53048016831F460412269A4
:100FA00051EAC201016000F00FF834492A4A126880
:100FB000C2F30312895CC8402B4908600F2000F07F
:100FC00061F80020BDE8F0812DE9F0410024002502
:100FD000002600272048006810F00C00002804D0EC
:100FE000042804D0082804D031E01E4830E024480A
:100FF0002EE0DFF86880D8F8000010F03F00040011
:10100000D8F8000040020CD5D8F80000C0F38810D2
:101010001B49A1FB00012200002300F059F8050044
:101020000BE0D8F80000C0F388100E49A1FB0001C6
:101030002200002300F04CF80500D8F80000C0F3AF
:101040000140401C40000600B5FBF6F000E00548FA
:10105000BDE8F08100380240083802400438024000
:10106000743802400024F40004000020403802409C
:101070000070004070380240003C0240E41E00084E
:1010800040787D0110B504004FF47A700D4909785D
:10109000B0FBF1F00C490968B1FBF0F000F0B0F9D9
:1010A000002801D001200CE0102C09D200222100E0
:1010B0005FF0FF3000F08FF904480460002000E08A
:1010C000012010BD080000200400002000000020C6
:1010D000BBBBE1B1B2F5803F80F07E80022A1ED911
:1010E0008C46B1FBF2F102FB11C31B0443EA10432F
:1010F000B3FBF2FC02FB1C3380B240EA0343B3FBB8
:10110000F2F002FB103240EA0C4000237047022A42
:1011100005D98446B0FBF2F002FB10C270474AB119
:1011200005D100F0010249085FEA30007047002253
:101130000023704700F078B90B0002000021002066
:101140007047904271EB030CF6D3B3F5803F2FD27A
:10115000F0B5B3FA83F7B1FA81F4A7F10F0E3D1B96
:101160005340CEF1200602FA0EF2F3415340B5F19E
:101170000F0746D80F3C2C444140C4F12006A04044
:10118000F1414140B1FBF3F603FB1611A2FB06450A
:10119000001BA94102D2761E8018594180EA010243
:1011A00021FA0EF362FA0EF200215A403046F0BDE9
:1011B00030B4B1FBF3FC03FB1C11A2FB0C45001B7C
:1011C000A94103D2ACF1010C8018594130BC024650
:1011D0000B46604600217047B2F1807F65D3F0B5C1
:1011E000B2FA82F7B1FA81F4C7F10F063D1B22FA79
:1011F00006F307F1110EF24120355A40B5F10F0701
:10120000B8D94140C4F12006A040F1414140B1FBB2
:10121000F3FC03FB1C11A2FB0C45001BA94103D2EC
:10122000BCF1010C801859410F2F12D30F3FC90395
:1012300041EA5041B1FBF3F603FB1611A2FB064550
:10124000D4EBC030A94102D2761E8018594146EA3B
:10125000CC3C07B34140C7F12006B840F1414140C2
:10126000B1FBF3F603FB1611A2FB0645001BA941D7
:1012700002D2761E8018594180EA010221FA0EF34B
:10128000C7F1200462FA0EF20CFA07F05A402CFA69
:1012900004F13043F0BD80EA010221FA0EF300218F
:1012A00062FA0EF260465A40F0BD8C46B1FBF2F194
:1012B00002FB11C31B0243EA1063B3FBF2FC02FB07
:1012C0001C331B024CEA002043EA1063B3FBF2FC20
:1012D00002FB1C331B024CEA002043EA1063B3FB01
:1012E000F2FC02FB1C331B024CEA002043EA1063B1
:1012F000B3FBF2FC02FB1C324CEA002000237047D7
:1013000010B410F00703DFF8044122684FF6FF0124
:101310000A40DFF8FC1051EA03210A43226010BCA6
:101320007047DFF8E8000068C0F30220704710B48F
:10133000020052B2002A05D40A01364B040064B2FE
:101340001A5508E00A01344B040064B214F00F048B
:10135000234403F8042C10BC704770B4030013F04E
:101360000704D4F10700052801D3042001E0D4F1DB
:101370000700251D072D01D2002500E0E51E0126EE
:1013800016FA00F0401E0140A94016FA05F56D1E40
:101390002A401143080070BC704710B50400601E5D
:1013A000B0F1807F01D301200EE0601E1B49086070
:1013B0000F215FF0FF30FFF7BAFF002018490860E7
:1013C000072018490860002010BD10B50400200057
:1013D000FFF796FF10BD2DE9F04104000D00160047
:1013E0000027FFF79EFF8046320029004046FFF7A6
:1013F000B4FF0100200040B2FFF799FFBDE8F08183
:1014000010B504002000FFF7C8FF10BD0CED00E090
:101410000000FA0500E400E018ED00E014E000E050
:1014200018E000E010E000E07047000010B5CC4C80
:10143000CC4820602000FEF731FF002801D00120B9
:1014400055E000F095F9C8480021C1610021016212
:1014500000214162002141610021C162002101633C
:10146000002141634FF40051C160C0480021016177
:101470000121C160102181605FF480014161012080
:1014800060600420A0601020E0608020B0FA80F04E
:10149000401E20614FF4A06060610020A061002028
:1014A000E061002020622000FEF78EFE002801D0BF
:1014B00001201CE0200000F01BF8002801D00120D2
:1014C00015E0200000F0ACF8002801D001200EE06B
:1014D000200000F04DF8002801D0012007E0200096
:1014E00000F028F8002801D0012000E0002010BD05
:1014F00070B504009C4D4FF48070A8616620286090
:101500000020686241F28836320029002000FEF790
:10151000E7FE002801D001200BE09920286032006E
:1015200029002000FEF7DCFE002801D0012000E0A9
:10153000002070BD1CB504008B494FF440708861D9
:10154000EB2008604FF44060C8615FF04070486273
:101550000A20486100200190002000906A46200087
:10156000FFF768F8002801D0012000E0002016BD38
:1015700030B58FB004004FF4807007908520019043
:1015800000200890002009905FF080700A900020F1
:10159000069001200B9000200C9000200D90002060
:1015A0000E9041F288352A0001A92000FEF798FE2E
:1015B000002801D0012031E02A0069462000FEF712
:1015C00058FF002801D0012028E0200000F09EF8FC
:1015D000002801D0012021E0812001909DF8001019
:1015E00011F00F010A225FF07060B0FA80F08240C3
:1015F00011438DF800102A0001A92000FEF770FEAB
:10160000002801D0012009E02A0069462000FEF7E9
:10161000BDFE002801D0012000E000200FB030BD49
:10162000F0B595B004004FF4807007900020099049
:101630000020069000200C9000200D9000200E90BD
:1016400010201190002013905FF48000149065200A
:101650000190002008905FF080750A9501200B90A2
:101660003F4E41F288373A0001A93000FEF738FEBC
:10167000002801D0012047E03A0069463000FEF71B
:10168000F8FE002801D001203EE006200190002055
:101690000A903A0001A93000FEF722FE002801D08E
:1016A000012031E002200F900220109001201290C2
:1016B000052001900A953B000FAA01A93000FEF712
:1016C00053FF002801D001201EE06120019001207D
:1016D0000B909DF8000010F03F0050F040008DF896
:1016E00000003A0001A93000FEF7FAFD002801D001
:1016F000012009E03A0069463000FEF747FE002865
:1017000001D0012000E0002015B0F0BD70B504004C
:10171000154D4FF44070A8610620286000206862D3
:1017200041F28836320029002000FEF7D9FD00285A
:1017300001D0012013E00D4A022010600220506009
:10174000052028605FF040706862330029002000A7
:10175000FEF70AFF002801D0012000E0002070BD44
:101760000C000020001000A0580000209000002075
:1017700010B586B03648016851F00201016000687A
:1017800010F00200059005983248016851F00201FE
:101790000160016831F0020101602F48016851F0D9
:1017A00002010160016811F00201059105990168CB
:1017B00051F008010160016811F0080105910599D7
:1017C000016851F010010160006810F010000590F0
:1017D0000598402000900A200490022001900120EA
:1017E0000290022003901D4C6946200000F03CF856
:1017F00004200090092004900020029069462000F7
:1018000000F032F84FF40060009009200490144C6E
:101810006946200000F028F84FF48050009009201D
:1018200004906946200000F01FF804200090092071
:10183000049069460B4800F017F84FF400500090F0
:10184000092004906946200000F00EF806B010BD93
:101850003838024018380240303802400004024054
:10186000000C0240001002402DE9F8410022002344
:10187000002400260025102D80F00B81012717FA87
:1018800005F213000A681A4014009C4240F0FF80E1
:101890004A68022A02D04A68122A1FD12A00D208B6
:1018A00000EB8202D2F820C05FF00F0E15F00702A5
:1018B000D2B292001EFA02FE3CEA0E0CD1F810E001
:1018C00015F00702D2B292001EFA02FE5EEA0C0C7C
:1018D00066462A00D20800EB82021662D0F800C0E9
:1018E0005FF0030E2A00D2B252001EFA02F23CEA66
:1018F000020C91F8048018F003082A00D2B25200BA
:1019000018FA02F858EA0C0CC0F800C04A68012A1C
:1019100008D04A68022A05D04A68112A02D04A68CB
:10192000122A1BD186682A00D2B252001EFA02F295
:101930009643D1F80C802A00D2B2520018FA02F86D
:1019400058EA060686604268AF40BA434F68C7F35C
:101950000017AF403A439446C0F804C0C6682A0056
:10196000D2B252001EFA02FE36EA0E068F682A0034
:10197000D2B2520097403E43C6604A68D20040F15E
:101980008680DFF81421176857F4804717601268C3
:1019900012F480420092009ADFF800C12A009208F7
:1019A0005CF822705FF00F0E15F00302D2B29200C5
:1019B0001EFA02FE37EA0E07DFF8E420904201D15A
:1019C000002631E0DFF8DC20904201D101262BE037
:1019D000DFF8D420904201D1022625E0DFF8CC20A8
:1019E000904201D103261FE0DFF8C420904201D1CC
:1019F000042619E02F4A904201D1052614E02E4A10
:101A0000904201D106260FE02C4A904201D10726D0
:101A10000AE02B4A904201D1082605E0294A90426B
:101A200001D1092600E00A26F6B215F00302D2B26F
:101A30009200964037432A0092084CF82270224EBA
:101A40003268A243D1F804C05FEACC3C00D52243FF
:101A500032601E4F3E68A643D1F804C05FEA8C3C5A
:101A600000D526433E601A4F3A68A243D1F804C01D
:101A70005FEACC2C00D522433A60164F3E68A6435D
:101A8000D1F804C05FEA8C2C00D526433E606D1C63
:101A9000F1E6BDE8F1810000443802400838014019
:101AA000000002400004024000080240000C024016
:101AB000001002400014024000180240001C0240C6
:101AC0000020024000240240003C0140043C014050
:101AD000083C01400C3C0140BFF34F8FBFF36F8FB8
:101AE000002049490860BFF34F8FBFF36F8F47480D
:101AF000016851F400310160BFF34F8FBFF36F8F66
:101B00007047BFF34F8FBFF36F8F4048016831F4C8
:101B10000031016000203C490860BFF34F8FBFF3E4
:101B20006F8F704710B4002039490860BFF34F8FA2
:101B300038480168C1F34E32C1F3C900030043F6CF
:101B4000E07010EA421050EA8370334C20601800B5
:101B5000431E0028F3D11000421E0028ECD1BFF331
:101B60004F8F2A48046854F480340460BFF34F8FC9
:101B7000BFF36F8F10BC704710B400202449086079
:101B8000BFF34F8F2148016831F480310160BFF30A
:101B90004F8F20480168C1F34E32C1F3C9000300E2
:101BA00043F6E07010EA421050EA83701B4C20604C
:101BB0001800431E0028F3D11000421E0028ECD16B
:101BC000BFF34F8FBFF36F8F10BC704780B500F02D
:101BD00072F800F07DF800F030F800F027F80028E7
:101BE00001D000F029F800F06CF800200C490860E2
:101BF0000C480D49096801605FF01041096881F3E4
:101C0000088800688047FEE750EF00E014ED00E030
:101C100084ED00E080ED00E060EF00E074EF00E0B4
:101C200010E000E0A80000200400009010B500249F
:101C3000FFF7FCFB204310BDFEE730B591B0002458
:101C4000012005905FF48030069002200B905FF435
:101C500080000C9019200D904FF4D8700E90022047
:101C60000F900820109005A8FEF720FF050028001F
:101C7000C0B2002800D0FEE700F03EF804002000CB
:101C8000C0B2002800D0FEE70F2000900220019093
:101C9000002002904FF4A05003904FF48050049025
:101CA00006216846FFF7E5F80100C9B2002900D017
:101CB000FEE711B030BD80B5FFF70EFFFFF732FF32
:101CC00001BD80B5FFF71DFFFFF756FF01BD000006
:101CD00080B50748016851F4807101600320FFF767
:101CE00074FB0F20FFF7CEF900F004F8002002BDCE
:101CF000003C0240704700007CB500241B4801688E
:101D000051F080510160006810F080500090009800
:101D1000154E306850F480303060FEF755FE0500F7
:101D2000104C2068C00308D4FEF74EFE401B40F262
:101D3000E9318842F4D3032013E0306850F40030D6
:101D40003060FEF741FE06002068800308D4FEF7ED
:101D50003BFE801B40F2E9318842F5D3032000E0CE
:101D6000002076BD04700040007000404038024002
:101D70000F48016851F4700101600E49086850F085
:101D80000100086000200C4A10600A680B480240FD
:101D90000A600B480B4A1060086830F48020086025
:101DA0000020094908605FF000600849086070473A
:101DB00088ED00E00038024008380240FFFFF6FEE0
:101DC00010300024043802400C38024008ED00E0D6
:101DD00030B450F8041B79B10268436802440830FB
:101DE000DC0744BFA9F10104E31852F8045B43F88F
:101DF000045B091FF9D1ECE730BC704710B5074907
:101E000079441831064C7C44163404E00A68081DF5
:101E1000114488470146A142F8D110BD2C000000B2
:101E20004C0000004EF68851CEF20001086840F4E4
:101E300070000860BFF34F8FBFF36F8F4FF00070DB
:101E4000E1EE100A704700008FEBFFFFA4000000D6
:101E50000C0000200000000079FFFFFF0C000000D4
:101E6000B0000000000000200000000000F00DF8AD
:101E7000002801D0FFF7C2FFAFF300800020AFF3CE
:101E80000080FFF7A3FE00F002F80120704700F089
:101E900001B800000746384600F002F8FBE70000F2
:101EA00080B5AFF30080024A11001820ABBEFBE7FB
:101EB0002600020003480168034A1278891801606D
:101EC000704700BFAC000020080000207047FEE70C
:101ED000FEE7FEE7FEE770477047704780B5FFF703
:101EE000E9FF01BD00000000000000000102030442
:101EF000060708090148804701480047711D00088E
:101F0000051F0008AFF30080FFF78CFFFFF7AEFF5F
:101F1000100000000024F40001000000FFF7FEBFE5
:101F2000FFF7FEBFFFF7FEBFFFF7FEBFFFF7FEBFE5
:101F3000FFF7FEBFFFF7FEBFFFF7FEBFFFF7FEBFD5
:101F4000FFF7FEBFFFF7FEBFFFF7FEBFFFF7FEBFC5
:101F5000FFF7FEBFFFF7FEBFFFF7FEBFFFF7FEBFB5
:101F6000FFF7FEBFFFF7FEBFFFF7FEBFFFF7FEBFA5
:101F7000FFF7FEBFFFF7FEBFFFF7FEBFFFF7FEBF95
:101F8000FFF7FEBFFFF7FEBFFFF7FEBFFFF7FEBF85
:101F9000FFF7FEBFFFF7FEBFFFF7FEBFFFF7FEBF75
:101FA000FFF7FEBFFFF7FEBFFFF7FEBFFFF7FEBF65
:101FB000FFF7FEBFFFF7FEBFFFF7FEBFFFF7FEBF55
:101FC000FFF7FEBFFFF7FEBFFFF7FEBFFFF7FEBF45
:101FD000FFF7FEBFFFF7FEBFFFF7FEBFFFF7FEBF35
:101FE000FFF7FEBFFFF7FEBFFFF7FEBFFFF7FEBF25
:101FF000FFF7FEBFFFF7FEBFFFF7FEBFFFF7FEBF15
:10200000FFF7FEBFFFF7FEBFFFF7FEBFFFF7FEBF04
:10201000FFF7FEBFFFF7FEBFFFF7FEBFFFF7FEBFF4
:10202000FFF7FEBFFFF7FEBFFFF7FEBFFFF7FEBFE4
:10203000FFF7FEBFFFF7FEBFFFF7FEBFFFF7FEBFD4
:10204000FFF7FEBFFFF7FEBFFFF7FEBFFFF7FEBFC4
:10205000FFF7FEBFFFF7FEBFFFF7FEBFFFF7FEBFB4
:10206000FFF7FEBFFFF7FEBFFFF7FEBFFFF7FEBFA4
:10207000FFF7FEBFFFF7FEBFFFF7FEBFFFF7FEBF94
:10208000FFF7FEBFFFF7FEBFFFF7FEBFFFF7FEBF84
:10209000FFF7FEBFFFF7FEBFFFF7FEBFFFF7FEBF74
:0420A000FFF7FEBF89
:0200000490006A
:1000000000000520AD060090692900906B29009042
:100010006D2900906F290090712900900000000068
:10002000000000000000000000000000918000902F
:1000300073290090000000003181009095810090AC
:10004000FD060090FD060090FD060090FD06009064
:10005000FD060090FD060090FD060090FD06009054
:10006000FD060090FD060090FD060090FD06009044
:10007000FD060090FD060090FD060090FD06009034
:10008000FD060090FD060090FD060090FD06009024
:10009000FD060090FD060090FD060090FD06009014
:1000A000FD060090FD060090FD060090FD06009004
:1000B000FD060090FD060090FD060090FD060090F4
:1000C000FD060090FD060090FD060090FD060090E4
:1000D000FD060090FD060090FD060090FD060090D4
:1000E000FD060090FD060090FD060090FD060090C4
:1000F000FD060090FD060090FD060090FD060090B4
:10010000FD060090FD060090FD060090FD060090A3
:10011000FD060090FD06009075290090FD060090F8
:10012000FD060090FD060090FD060090FD06009083
:10013000FD060090FD060090FD060090FD06009073
:10014000FD060090FD060090FD06009081290090BC
:10015000FD060090FD060090FD060090FD06009053
:10016000FD060090FD060090FD060090FD06009043
:10017000FD060090FD060090FD060090FD06009033
:10018000FD060090FD060090FD060090FD06009023
:10019000FD060090FD060090FD060090FD06009013
:1001A0008D290090FD06009099290090FD06009091
:1001B000FD060090FD060090FD060090FD060090F3
:0801C000FD060090FD06009011
:1001D00010B5054C237833B9044B13B10448AFF381
:1001E00000800123237010BD2004002000000000C7
:1001F000E094029008B5034B1BB103490348AFF3E9
:10020000008008BD0000000024040020E09402905B
:1002100010F8012B11F8013B012A28BF9A42F7D0B0
:10022000D01A7047034613F8012B002AFBD1181A85
:1002300001387047000000000000000000000000CE
:1002400001F0FF01102A2BDB10F0070F08D010F887
:10025000013B013A8B422DD010F0070F42B3F6D18B
:10026000F0B441EA012141EA014122F007047FF0A4
:1002700000070023F0E80256083C85EA010586EAFB
:10028000010685FA47F5A3FA87F586FA47F6A5FA37
:1002900087F68EB9EED1F0BC01F0FF0102F0070243
:1002A00032B110F8013B013A83EA010313B1F8D1EE
:1002B0000020704701387047002D06BF35460338CF
:1002C000073815F0010F07D1013015F4807F02BF08
:1002D000013015F4C03F0130F0BC0138704700BF59
:1002E0007BB972B90029BEBF00204FF0004106E083
:1002F00008BF00281CBF6FF000414FF0FF3000F036
:10030000D3B9ADF1080C6DE904CE002909DB002B4F
:100310001ADB00F04DF8DDF804E0DDE9022304B05B
:100320007047404261EB4101002B1BDB00F040F8BD
:10033000DDF804E0DDE9022304B0404261EB410155
:10034000524263EB43037047524263EB430300F0B6
:100350002FF8DDF804E0DDE9022304B0404261EB50
:1003600041017047524263EB430300F021F8DDF88E
:1003700004E0DDE9022304B0524263EB430370471B
:1003800053B94AB9002908BF00281CBF4FF0FF31FC
:100390004FF0FF3000F088B9ADF1080C6DE904CEE4
:1003A00000F006F8DDF804E0DDE9022304B0704750
:1003B0002DE9F047089D8E4604468846002B4AD119
:1003C0008A42174662D9B2FA82F64EB1C6F12003CC
:1003D00001FA06F820FA03F3B74043EA0808B440EC
:1003E0004FEA174E1FFA87FCB8FBFEF1230C0EFBF9
:1003F000118843EA084301FB0CF29A4209D9FB1821
:1004000001F1FF3080F0EA809A4240F2E780023941
:100410003B449A1AA3B2B2FBFEF00EFB102243EA51
:10042000024300FB0CFC9C4509D9FB1800F1FF328C
:1004300080F0D6809C4540F2D3803B44023840EAAD
:100440000140A3EB0C0300211DB1F3400022C5E9DC
:100450000032BDE8F0878B4205D90DB1C5E9000136
:1004600000210846F5E7B3FA83F1002946D1734528
:1004700002D3824200F20581841A6EEB030201204E
:100480009046002DE5D0C5E90048E2E7002A00F0DB
:100490009080B2FA82F6002E40F0A4808A1A030CF3
:1004A0004FEA174E80B2BCB20121B2FBFEFC0EFB3C
:1004B0001C2243EA024304FB0CF29A4207D9FB18C0
:1004C0000CF1FF3802D29A4200F2E080C4469B1A37
:1004D000B3FBFEF20EFB123340EA034302FB04F4CB
:1004E0009C4207D9FB1802F1FF3002D29C4200F275
:1004F000CA8002461B1B42EA0C40A5E7C1F1200658
:100500008B4022FA06F71F430EFA01F420FA06F395
:100510002EFA06FE4FEA1749234300FA01F81FFAA4
:1005200087FCBEFBF9F01C0C09FB10EE44EA0E44FC
:1005300000FB0CFEA64502FA01F209D93C1900F1B4
:10054000FF3A80F09C80A64540F2998002383C44F6
:10055000A4EB0E041FFA83FEB4FBF9F309FB13446A
:100560004EEA044403FB0CFCA44508D93C1903F1F2
:10057000FF3E80F08280A4457FD9023B3C4443EAA1
:100580000040A4EB0C04A0FB02EC64457346E1467A
:1005900062D35FD05DB1B8EB030264EB090404FAE7
:1005A00006F622FA01F31E43CC40C5E9006400219F
:1005B0004FE7B1FBF2FC010C41EA0E4180B240EA88
:1005C00001423B4638463C46B846BE462026B1FB73
:1005D000F7F1A2EB080241EA0C4166E7014618E791
:1005E00010462CE7C6F120022EFA02F3B740B140C4
:1005F00020FA02F24FEA174E0A43B3FBFEF8BCB2F0
:100600000EFB1833110C41EA034108FB04F9B0401A
:1006100089454FEA104380B23ED9791808F1FF3C72
:1006200001D289451FD8A1EB0901B1FBFEF909FBF5
:1006300004F80EFB191192B242EA0142424529D256
:10064000BA1809F1FF31C4D24245C2D2A9F1020160
:100650003A44BEE7F0459DD2BEEB02036CEB070CBB
:100660000138E14696E7A7EB09094944A8F1020CD5
:10067000B1FBFEF909FB04F8DBE773467FE7504660
:1006800066E70846FDE63B44023A33E7ACF1020C6C
:100690003B441CE749469CE7A1EB0901C446B1FB7A
:1006A000FEF909FB04F8C4E7704700BFDFF834D057
:1006B000002103E00C4B5B58435004310B480C4BBA
:1006C00042189A42F6D30B4A02E0002342F8043B58
:1006D000094B9A42F9D303F0F1FA28F08BF901F0B3
:1006E000E1FC7047000005206463039000000020D7
:1006F000200200202004002080B70120FEE7000037
:100700002DE9F84F0D4616461F46044660B9DFF83E
:1007100048800F4BDFF84490DFF844A0DFF844B086
:10072000C8F80030AC4202D30A48BDE8F88F494609
:1007300056F82400FFF76CFD38B9514657F82400ED
:10074000FFF766FD08B9C8F800B00134EAE700BF5A
:10075000FCFF03004095029060000020539502903A
:1007600088950290FEFF010070B50C4686B068BB0C
:100770004FF40061164803F04FFF012816D1154BC6
:1007800001AD03F110061868083353F8041C2A461B
:10079000B34203C21546F6D101A9204628F051F90B
:1007A00001A8FFF73FFD80B206B070BD0A4B01AA59
:1007B00003F110061868083353F8041C1546B342B9
:1007C00003C52A46F6D118682860E5E70020EBE764
:1007D000002002405795029067950290044A054B0D
:1007E00092E8030083E80300012118460EF06CBD77
:1007F00028A602903C0400200122024902480EF083
:1008000055BD00BF040000206907009008B50EF038
:1008100031FDFFF7E3FFBDE80840FFF7EDBF000043
:1008200038B5184B0C46D3F8BC52D5F8F82712B19E
:100830006FF0070038BDD5F8D837C5F8E0272C335E
:1008400084B9D5F8E027D5F8D8172C320D48C5F86B
:10085000E0270EF015FF0B480EF02CFF0028E7D123
:100860002046E7E762891846616828F0F2F8618956
:10087000D5F8E027034624680A440B44C5F8E0276E
:10088000DEE700BF0C2C00201D4B70B5D3F8BC4236
:100890000646D4F8DC17D4F8FC3779B3012B2DD1F8
:1008A0004FF4C17289B200200BF048F8054628B316
:1008B000D4F8D417B4F8DC27406828F0CAF8D4F884
:1008C000DC37314628466B813369984710B128469A
:1008D0000BF008F800230B490948C4F8DC37C4F8CA
:1008E000FC370EF0DBFED4F80038D4F8D427012111
:1008F0009BB20348BDE8704001F060BB70BD00BF13
:100900000C2C0020D01C002047F273430A4A438677
:100910000A4B43610A4B836140F20233C0E90A2368
:10092000062380F8303090F8313043F00A0380F825
:1009300031300020704700BFDC05000241A100906B
:100940002108009003F008BA10B590F83120044651
:100950000421054812F0040218BF012203F062FED0
:10096000204601F0F7F810BD001C0240704708B5A2
:1009700000F0E4FDBDE8084000F068BD00F0E0BD17
:1009800040687047416070474FF0E022D2F8FC3D6C
:1009900043F08073C2F8FC3D054B064AD3F8B01F04
:1009A0000A43C3F8B02F1A6842F001021A60704778
:1009B000001000E055CEACC5521A02EB5302B2FB58
:1009C000F3F07047014B5868704700BF001000E01B
:1009D000704710B504460C2126F0A2FD204610BD3C
:1009E000036810B51B69044631B19847A268636873
:1009F0009B1A0344636010BD9847A060FBE77047F3
:100A000030B58DB00D46144600212C2201A827F0E8
:100A10002AFF01A803F096F89DF8040030B1BDF854
:100A2000063001202B60BDF8103023600DB030BDC2
:100A300010B50446042126F073FD204610BD0000C9
:100A400008B54FF488714FF4F07003F027F828B11F
:100A5000034B2021034A044827F09EFC08BD00BF39
:100A60008A950290AB950290D5950290032823D8E1
:100A7000DFE800F0020B131A104B102110481A681F
:100A8000B2FA82F2520903F0CDBD0C4B40215A68F4
:100A9000B2FA82F252090B48F5E7084B80219A68B6
:100AA000B2FA82F25209F6E7044B40210648DA68AE
:100AB000B2FA82F25209E6E7704700BF4404002010
:100AC000000402400008024000180240032823D816
:100AD000DFE800F0020B131A104B102110481A68BF
:100AE000003A18BF012203F09DBD0C4B40215A680B
:100AF000003A18BF01220B48F5E7084B80219A689D
:100B0000003A18BF0122F6E7044B40210648DA6894
:100B1000003A18BF0122E6E7704700BF44040020F6
:100B200000040240000802400018024003280FD8C9
:100B3000DFE800F00206090B1021064803F077BD3C
:100B400040210548FAE78021FBE740210348F5E70B
:100B5000704700BF00040240000802400018024035
:100B600008B5032813D8DFE800F0020A0D0F1021A2
:100B7000084803F051FD431E5842584108BD40212A
:100B80000548F6E78021FBE740210448F1E7002013
:100B9000F1E700BF000402400008024000180240D4
:100BA00070B5084D00240126E0B2FFF7D9FF18B157
:100BB0002B68012B18BF2E6001340435052CF3D1AE
:100BC00070BD00BF44040020012380F8781080F835
:100BD0007930704770470020704700004164003949
:100BE000024B18BF01211970704700BF3DAA0120B8
:100BF000704700207047836B0BB108461847704759
:100C00004FF6FF707047406803689B69184770474C
:100C10007047704738B5044600F0D0FD0849236896
:100C20002046084DD3F8903098470023284684F892
:100C30004A30FFF7A9FE0123256184F8703038BDE2
:100C400000F807C05404002008B503680446D3F830
:100C50008430984723682046DB6F984700F02EF9D0
:100C6000236820465B6F98474FF48051044803F097
:100C7000DEFC00F023F9236820465B6F9847F8E715
:100C80000020024010B5044610F0DEFB2368204629
:100C9000D3F8BC30BDE81040184700F04BBD00F061
:100CA0004FBD000070B500F0A7FD10490023C1F84A
:100CB0008430BFF34F8FD1F8803043F6E074C3F334
:100CC000C900C3F34E335B0103EA0406024646EA59
:100CD0008275013AC1F87452F9D2203B13F1200F0A
:100CE000F2D1BFF34F8FBFF36F8F70BD00ED00E007
:100CF00000F0FCBC00F094BD00F09CBD00F000BD15
:100D00000FF0D0BD10B50446842126F009FC204622
:100D100010BD000090F834100D4B10B590F87840DD
:100D20001A788C4209D03AB90A490B4A08881488C3
:100D3000108001220C801A7010BD002AFCD0064AD7
:100D40000449148808880C8010800022F3E700BF53
:100D500036AA012034AA012032AA012070B50D461E
:100D6000194635B9094B40F2FF21094A094827F0D5
:100D700013FBC0E90F52003A074B18BF01221A704B
:100D80000368BDE87040D3F890301847279602906A
:100D90005F960290AD9602903CAA012008B5094BDF
:100DA0001B888B4203D8084B1B88934205D9074BFD
:100DB000A321074A074827F0EFFA074B1980074B92
:100DC0001A8008BD32AA012034AA0120F2960290AE
:100DD00055970290AD96029038AA01203AAA0120B8
:100DE000034690F87A0018B1586803681B681847E2
:100DF00070470000014608B5034B186801B1012196
:100E000010F03CFB012008BD40AA0120034B00224A
:100E10005A609A60024A1A60704700BF540400206A
:100E200038A602900121002208B5084606F0FCFD14
:100E30000A4B186028B90A4B28210A4A0A4827F0A9
:100E4000ABFA00220421012006F0B8FE074B18601F
:100E500018B9074B2C21034AF0E708BD64040020B1
:100E600098970290E19702901098029060040020F9
:100E700062980290024B4FF0FF31186806F02CBECA
:100E800064040020014B186806F062BE6404002070
:100E9000024B0021186806F01FBE00BF640400204A
:100EA000FFF7F0BF0023034803491A46006806F025
:100EB000CBBE00BF600400200800002013B5002353
:100EC000074C01A91A46206806F000FF4FF0FF33D7
:100ED000002201A9206806F0F9FE02B010BD00BF93
:100EE0006004002003685B6C1847012070470368AA
:100EF0009B6A1847FEE700000E4B82B01A6B42F463
:100F000000021A631A6B02F400020192019A1A6934
:100F100042F400021A611A6922F400021A61064BB7
:100F2000064A1A61064A5A614FF08062054B9A6080
:100F300002B07047003802406C2B0020D1110090A5
:100F4000F50E009000E100E040F2EF307047000045
:100F5000054B4FF080620360044BC3F88820BFF359
:100F60004F8FBFF36F8F704764A7029000E100E0DE
:100F700010B504464FF45A61FFF7EAFF204626F009
:100F8000CFFA204610BD000008B50A2809D8DFE8CE
:100F900000F006100E0808080810101010000220BB
:100FA00008BD054B9021054A054827F0F5F90020BA
:100FB000F6E70120F4E700BFA4980290BF980290E2
:100FC0000A99029038B50C46887FFFF7DDFF174B72
:100FD000A58AE28A586342EA054221695A64628B13
:100FE000D963521B1A642568082D0ED19A611A61C3
:100FF00058620F4A207F42EA0062DA61E2681A62B0
:101000000C4A5961D9601A6038BD0022D8611A6152
:10101000E1680A0A4809C1F3C40102F4784200F405
:10102000FC6002430A439A63034AECE700B00240C3
:1010300009000100012302000123030008B50B2869
:101040000BD8DFE800F00612100A0A0A0A0808089E
:101050000808022008BD0520FCE7054B6F21054A62
:10106000054827F099F90020F4E70120F2E700BFD6
:10107000A49802905A9902900A9902902DE9F041A1
:1010800091F81D800C464046FFF7D8FFA77F054624
:101090003846FFF7D3FF06463846FFF775FFA18AAB
:1010A000628B434B521A1A649A61228B521A1A614C
:1010B000E28A586342EA014221695A646268D9634C
:1010C000DA602068802828D0227F0FD8202866D0B8
:1010D000402864D004281AD045EA0265344BB8454C
:1010E00045F40035DD6160D0324A44E0B0F5807FE0
:1010F00004D0B0F5007FEFD12F4800E02F4840EA40
:101100000262DA61E2681A625E62596132E045EABF
:10111000026242F40032DA61F6E7A068021DDA6288
:10112000227F45EA026545F40035DD615E62596162
:10113000017841B1012921D0214B4FF48D71214A11
:10114000214827F029F9DA69418822F47F420139E0
:1011500022F0100242EA01220121DA61144BDA691D
:1011600042F02002DA61DA699206FCD410229A6019
:101170000029B9D0154A1A60BDE8F081B2F1FF012B
:10118000DA69408822F47F4218BF0121013822F039
:10119000100242EA002242F01002DA61DEE745EA7C
:1011A0000262034B42F40032B5E742F20132E2E759
:1011B00000B0024001230100090002000A00020001
:1011C000A4990290BE9902900A990290012302000C
:1011D000024B1B68586803685B69184740AA0120E6
:1011E00070B504460A4B0C3000262546602260602C
:1011F0002672667245F8203B294610F093FA04F5F2
:101200005A63EE6024359D42FBD1204670BD00BF7D
:1012100064A70290034B1A68D207FCD423229A6079
:10122000704700BF00B00240094B5A69D2030AD58B
:10123000BFF34F8F08440029A0EB010204DCBFF389
:101240004F8FBFF36F8F70472039C3F86822F2E7E2
:1012500000ED00E030B5104C2568ED07FCD42325E7
:101260000904FF2BA56041F001014FF00205656301
:101270006164E0630AD00949656241EA0363E3619E
:10128000074B22626061E060236030BDE561039B33
:10129000A363044BF8E700BF00B00240090001005F
:1012A000010002000100030030B50F4C2568ED0776
:1012B000FCD423251204FF2BA56042F001024FF05D
:1012C000020565636264E063E16008D01B0643F0D9
:1012D0000213E361054B65626061236030BD044B1E
:1012E000E3610123F9E700BF00B002400100020002
:1012F000020002FF30B50B4C2568ED07FCD4232516
:1013000012041B06A56042F00102022543F40033DB
:1013100065636264E063E160E361034B65626061A1
:10132000236030BD00B00240010002000120704780
:101330000C2070470C2303FB0100083070470C237E
:1013400003FB01000830704701207047D020704730
:10135000D02303FB010008307047D02303FB0100BA
:1013600008307047012070471020704700EB0110D3
:101370000830704700EB011008307047084601F054
:10138000FBBC0000034B10B5044603600EF0E1FF08
:10139000204610BD1CA8029010B50446FFF7F2FFCE
:1013A0001421204626F0BCF8204610BD034B10B592
:1013B000044603600EF0CDFF204610BDE8A7029062
:1013C00010B50446FFF7F2FFD821204626F0A8F812
:1013D000204610BD034B10B5044603600EF0B9FF64
:1013E000204610BDB4A7029010B50446FFF7F2FFE7
:1013F0001821204626F094F8204610BD084B10B561
:101400000446036000F58270FFF7BCFF04F12C0076
:10141000FFF7CCFF04F11400FFF7DCFF204610BDFE
:1014200050A8029008B50248FFF7E8FF08BD00BFCA
:101430004013002010B50446FFF7E0FF4FF41E7183
:10144000204626F06DF8204610BD00002DE9F3413E
:1014500001F016FB0024054601F016FB2346014669
:1014600022462846009416F097FF274B274A20462D
:10147000274D1A6001F0C6FE264B274A27489A607E
:1014800016F0F2FE2B68BFF35B8FDB0735D42846DE
:1014900026F048F888B3224C224B04F58E7604F1EE
:1014A000140004F12C0804F5827723606060C4F80E
:1014B0000880E76026610EF04DFF1B4B40466361DC
:1014C0000EF048FF194B3846E3620EF043FF184B0D
:1014D00004F58C70C4F8043101F00AFF224604F5CB
:1014E0008C71304601F0FAFE304601F045FC11489F
:1014F00026F070FF284626F021F80F4802B0BDE81C
:10150000F041FFF787BB00BFA4AA0120EC04002034
:101510003C1300200C050020F00400200C000020EB
:101520004013002050A80290B4A70290E8A70290B0
:101530001CA8029025140090680400207047000049
:101540000148FFF781BB00BF6804002070B5264E3C
:10155000264B274C3046274D2360FFF741FE284697
:101560001CF02CF8244815F001F8244B00224FF40D
:10157000807123481A8683F858205A6683F87020B1
:101580005A67DC60C3E912121E49C3E91A121E49E8
:10159000C3E91E011D491E48C3F880101D490B6098
:1015A0004FF4F071C3E90422C3E90622C3E908221B
:1015B000C3E90A22C3E90E22C3E91022C3E91422B7
:1015C000C3E91722C3E901650180134883F8342079
:1015D00001804FF488711148018011480180114940
:1015E0000A70114A1A6070BD9805002060A602902A
:1015F000381300200C050020F004002068040020AF
:101600000000010101000001000444001600140064
:1016100032AA012040AA012038AA012034AA0120C0
:101620003AAA012036AA012078A602900148FFF7C5
:101630008FBC00BF98050020002070478180704754
:10164000C180704701817047418170477047704782
:1016500070477047704710B4C4880368121B8488B1
:101660005B6D091B12B25DF8044B09B218474FF6C7
:10167000FF7383814FF0FF3303621368C36110600F
:101680007047002070478B88838001207047704727
:1016900080F82610704790F82600704710B5002299
:1016A000B1F90840B1F90A10028042808480C180FB
:1016B00010BD0022028042808280C2807047017784
:1016C000704780ED080A704780F82410704780F852
:1016D0002510704701207047983070478C30704754
:1016E000843070477047704770470000034B90226A
:1016F00083F85A2383F85823704700BF00E100E0C5
:10170000094A0A49D3680A48C3F30A03013B9BB25A
:101710000B801169C1F30A01013901801364536B15
:1017200043F001035363704700680140BA1500207D
:10173000B8150020014BD3F8AC0070470068014099
:10174000024B0122C3F8AC105A6270470068014096
:10175000124A5369DB0370B51ED50023C2F88430EA
:10176000BFF34F8FD2F8803043F6E074C3F3C90063
:10177000C3F34E335B0103EA0406014646EA817572
:101780000139C2F87452F9D2203B13F1200FF2D183
:10179000BFF34F8FBFF36F8F70BD00BF00ED00E050
:1017A00010B504462C2125F0BBFE204610BD10B517
:1017B0000446BC2125F0B4FE204610BD70B5044699
:1017C0000FF0C5F823689D6E13F062FC01462046B9
:1017D000A8472368054A2046D3F88C500023A2F579
:1017E0007F31AC46BDE87040604700BF00FC03C0DD
:1017F0000FF094B80FF09EB80FF05AB80FF0C9B9B7
:1018000090F8252012B103685B691847704790F87B
:1018100025201AB190F8242002B11860704700000A
:10182000034B4FF080629A604FF080729A6070476D
:1018300000E100E0084B4FF08062C3F88820BFF35E
:101840004F8FBFF36F8F4FF08072C3F88820BFF3C4
:101850004F8FBFF36F8F704700E100E0002370B53A
:10186000124E05468380124B0360336893F858206C
:101870000AB1D86C00B998680368DB6A9847336886
:10188000B0FA80F4D86C640930B10368DB6A984719
:10189000002808BF44F001042CB9064B2C21064A4D
:1018A000064826F079FD284670BD00BF40AA0120F9
:1018B00064A80290FC9902905A9A0290939A02901E
:1018C00070B5254E3568BFF35B8F15F0010540D12B
:1018D000304625F027FE00283BD0204C204B04F159
:1018E00034002561E584A562A585C4E90035C4E915
:1018F000025515F020F904F1580011F0CDFB194BF9
:101900002046A365184B40F8843BFFF7A7FF174B11
:101910001748C4F884302433C4F89050C4F88C308D
:101920004FF4C803C4F89C50C4F8A850C4E9283543
:101930000023C4F8AC30C4F8B030C4F8B430C4F8F4
:10194000B8300C4BC4F8983026F044FD304625F0F2
:10195000F5FD024870BD00BFBC150020C015002079
:101960002859039084A80290FCA80290DC580390A8
:10197000E9160090BC58039038B5184C23685BB347
:10198000174B184A1B6C11888B4216D1164B002539
:10199000198803F02BFB236893F86A2083F87C50A6
:1019A000013283F86A20FFF77DFA20680FF04CFDC2
:1019B0002846BDE83840FFF759B803F017FB246804
:1019C000236820461B6A98470123002084F87C3056
:1019D000BDE83840FFF77AB838BD00BF40AA012003
:1019E00000680140BA150020B815002010B5094C58
:1019F0000022094920460EF019F8084920460EF049
:101A000028F8204606490DF030FE2046BDE810407B
:101A10000EF038B80C2C002044000020F400002008
:101A200010000020034B0020D3F8BC32C3F8040898
:101A3000704700BF0C2C0020034B01220020D3F87C
:101A4000BC32C3F8FC2770470C2C002000207047E4
:101A5000012838B504460AD1064BD3F8BC52D5F854
:101A6000043823B9044809F093FEC5F8044800205F
:101A700038BD00BF0C2C0020D02B002008B5D0F8BA
:101A8000BC323BB1D3F8043823B10348FEF7FCFE67
:101A90000CF050FD002008BDD02B002070B5234D68
:101AA00088B0234C2E783EBB09F0DEFB214A6FF054
:101AB0007F4305A92046CDE9052303F5284306AA5F
:101AC000C13307931C4B02931C4BCDE9006307AB5A
:101AD00009F0CEFD204609F02FFE94F83130204663
:101AE00059071FD509F02EFE1549114809F06CFE63
:101AF000FEF78CFE01232B7094F83120042111484D
:101B000012F0010218BF012202F08CFD00220E49E2
:101B10000E480DF0B5FD0E490C480DF0BFFD00203C
:101B200008B070BD09F020FEDEE700BF7C16002083
:101B3000D02B0020C0A8000A2DE7009009090090D2
:101B400049090090001C0240801600200C2C002047
:101B5000D01C002030B590F8312085B0044612F03A
:101B600004051DD000220421124802F05BFD012271
:101B70000421104802F056FD0F4A6FF07F4301A97F
:101B80002046CDE9012303F5284302AAC13303937C
:101B900003AB09F041FD204609F0D4FD05B030BD8E
:101BA00009F0E2FD2A460421024805B0BDE83040B4
:101BB00002F038BD001C0240C0A8000A12230148F0
:101BC0000B80704730000020042301480B807047D1
:101BD0002C00002010B5044C0A46044821460EF0A3
:101BE00034FB204610BD00BF20240020029B029041
:101BF00010B5044C0A46044821460EF026FB204648
:101C000010BD00BF1E230020F59A02900A46054928
:101C100008B520B904480EF018FB024808BD034877
:101C2000F9E700BF20240020159B0290309B029012
:101C30000A46054908B520B904480EF006FB0248DB
:101C400008BD0348F9E700BF202400204B9B029009
:101C50005F9B02900A46054908B520B904480EF07A
:101C6000F4FA024808BD0348F9E700BF2024002029
:101C7000739B02908A9B02900368B3F1A04F2DE9F9
:101C8000F04104468EB04FD1674B4FF4C050002551
:101C900009A91A6B42F001021A631B6B03F00103DE
:101CA0000093009B0223CDE9090303235F48CDE99C
:101CB0000B530A230D9302F031FBA37B012B08D1B8
:101CC0004FF4007309A959480B95CDE9093502F085
:101CD00025FB4FF48062122309A95448CDE909235A
:101CE00001230B930A230D9302F018FB4E4B432064
:101CF00006215A6B42F080025A635A6B02F080024E
:101D00000192019A5A6C42F480425A6400225B6C40
:101D100003F480430293029B02F048F8432002F050
:101D200077F80EB0BDE8F081414A9342F9D13E4CBC
:101D3000002502270A26236B4FF0030809A93B4818
:101D400043F001032363236B03F001030393039B1D
:101D5000236B43F002032363236B03F0020304931A
:101D6000049B236B43F004032363236B03F00403FE
:101D70000593059B236B43F080032363236B0D9630
:101D800003F080030693069B2023CDE90B58CDE991
:101D9000093702F0C3FA082309A924480D96CDE9B2
:101DA0000937CDE90B5802F0B9FA43F6234309A9E4
:101DB00020480B950D96CDE9093702F0AFFA0123C3
:101DC00009A91D480B950D96CDE9093702F0A6FA31
:101DD000102309A919480B950D96CDE9093702F092
:101DE0009DFA042309A914480B950D96CDE90937EE
:101DF00002F094FA236B4D202A4643F080430721DA
:101E00002363236B03F080430793079B236B43F00B
:101E100000532363236B03F000530893089B01F0E6
:101E2000C5FF4D207BE700BF0038024000000240A4
:101E3000000004400004024000080240001C024070
:101E400000F29C41D0F8DC040DF02EBE242303FBED
:101E50000103D0F8DC04D3F860220DF055BE242332
:101E600003FB0103D0F8DC041A6A0DF082BED0F83F
:101E7000DC040DF01CBF38B5C5790446D0F8DC048D
:101E8000003D18BF01250DF0C7FED4F8DC0429463B
:101E9000BDE838400DF0EFBED0F8DC040DF0EEBE2A
:101EA000D0F8DC040DF0F8BED0F8DC040DF01FBF54
:101EB000D0F8DC040DF008BFD0F8DC040DF02ABF28
:101EC000D0F8DC040DF028BF38B5154C4FF0A04316
:101ED000002523600423C4F8DC0423714FF400734D
:101EE000C0F8C8422046E3804FF41073E581A36038
:101EF000257303F097F88021204603F0D8FD29468A
:101F00004022204603F0B4FD60220121204603F068
:101F1000AFFD20220221204603F0AAFD284638BD4D
:101F20002025002008B5D0F8C80203F0EFF8002003
:101F300008BD10B51446D0F8C8021A46234603F06F
:101F40000DF9002010BD08B5D0F8C80203F03DF926
:101F5000002008BD08B5D0F8C80203F0A4F900209D
:101F600008BD08B5D0F8C80203F0D4F9002008BDB8
:101F700011F0800FD0F8C8324FF0240217BF01F0E3
:101F80007F0102FB013302FB0133987D08BF93F808
:101F90005602704708B5D0F8C80203F0CCF800200C
:101FA00008BD38B501F07F04142505FB0404D0F802
:101FB000C802A36103F05DF9002038BD08B5D0F870
:101FC000C80203F030F9002008BDD0F8C80203F0C1
:101FD00048B900000149002007F0E0B9F50D009074
:101FE000054D064C08B5FFF701FD6B692046984783
:101FF000642005F001FDF8E7100000200C2C002003
:1020000010B594B01022002102240AA826F02BFC5F
:102010001422002103A826F026FC204B01211920C0
:102020001A6C42F080521A641B6C03F080530193C7
:10203000019B1B4B1A6842F440421A601B681294C1
:1020400003F440430293029B4FF48033CDE908131D
:102050004FF48003CDE90E434FF4D873CDE910035C
:10206000092308A8139303F073FD00B1FEE703F002
:1020700037FD00B1FEE70F234FF4A0520590072172
:1020800003A8CDE903344FF48053CDE9062303F0D0
:1020900047FF00B1FEE714B010BD00BF003802409A
:1020A0000070004080B598B0102200214FF0005819
:1020B0000BA8012426F0D7FB1C2601F0C9FEB64B65
:1020C0000BA8ADF82C40032540F20117CDE90C8395
:1020D000B24B0E9301F0DAFE4FF040438DF82D40E5
:1020E00000240BA80C938DF834608DF83740ADF8C0
:1020F0003A4001F0CBFE02230BA88DF837508DF843
:102100002D301623ADF83A708DF8343001F0BEFE54
:102110004FF010430BA88DF8346004260C938DF813
:102120002D508DF83740ADF83A4001F0AFFE17233F
:102130000BA88DF82D608DF834308DF83750ADF840
:102140003A7001F0A3FE05230BA88DF838408DF8F6
:102150002D3013238DF8343001F098FE304601F015
:1021600085FEBFF34F8FBFF36F8F8D4AC2F8504289
:10217000BFF34F8FBFF36F8F536943F40033536145
:10218000BFF34F8FBFF36F8FC2F88440BFF34F8F01
:10219000D2F8803043F6E074C3F3C900C3F34E3382
:1021A0005B0103EA0406014646EA81750139C2F87B
:1021B0006052F9D2203B13F1200FF2D1BFF34F8FC1
:1021C000536943F480335361BFF34F8FBFF36F8F75
:1021D00001F0A4FD0024FFF713FF142200210BA837
:1021E00026F041FB6F4B10216F481A6B01274FF00F
:1021F0000308102542F0400240261A631A6B02F0D1
:1022000040020092009A1A6B42F010021A631A6B95
:1022100002F010020192019A1A6B42F002021A6354
:102220001A6B02F002020292029A1A6B42F40072D6
:102230001A631A6B02F400720392039A1A6B42F04B
:1022400008021A631A6B02F008020492049A1A6BCD
:1022500042F001021A631A6B02F001020592059A1C
:102260001A6B42F480621A631A6B02F4806206925F
:10227000069A1A6B42F020021A631A6B02F02002CF
:102280000792079A1A6B42F480721A631A6B02F46F
:1022900080720892089A1A6B42F080021A631A6BD5
:1022A00002F080020992099A1A6B42F004021A6342
:1022B00000221B6B03F004030A930A9B02F0B2F99D
:1022C00000220821394802F0ADF9002241F2020152
:1022D000374802F0A7F90022C021364802F0A2F9DF
:1022E00000224021344802F09DF90BA92E48CDE987
:1022F0000B57CDE90D4802F011F808230BA92B4824
:10230000CDE90B37CDE90D4402F008F841F20203A4
:102310000BA92748CDE90B37CDE90D4401F0FEFFAD
:102320004FF400630BA922480D94CDE90B3401F062
:10233000F5FFC0230BA91F48CDE90B37CDE90D48A8
:1023400001F0ECFF1C480BA9CDE90B67CDE90D4866
:1023500001F0E4FF19481A4B848003600762C0E96A
:10236000054401F0BFFD00B1FEE7164C164BC4E971
:102370000200C4E90030C4E90A00C4E90C002046A8
:1023800001F0D0FE00B1FEE73946204601F080FFA3
:102390000346D8B1FEE700BF1200000301000101AF
:1023A00000ED00E000380240000402400028024036
:1023B000002002400008024000180240AC2B002020
:1023C000003002406C2B002000B002404A480BA9AC
:1023D0004A4A8360466183621195C0E90023042262
:1023E000C0E903258022C0E90833C0E90623CDE90E
:1023F0000B55CDE90D55CDE90F5504F0FDF800B1B1
:10240000FEE701F031FB01F0E3FA054600B1FEE71B
:10241000342201460BA83A4C26F025FA394B2826DF
:10242000352740F2152C40F2352E20462561A58631
:1024300084F83650C4E900350923C4E905630B2349
:10244000C4E9077340F21B13C4E909C340F21D132A
:10245000C4E90255C4E90BE302F0D0FC024600B126
:10246000FEE74FF4F0714FF488730B904FF48065E2
:102470001693ADF85C208DF85E20CDE90C1002209B
:10248000CDE90E30FF20CDE910020520CDE9142161
:10249000CDE912500BA9204602F07BFD034600B1A6
:1024A000FEE719484FF4E132184903614362C0E97D
:1024B00000120C22C0E90233C0E90523C0E907334A
:1024C00004F060FC00B1FEE7FEF751FAFEF74EFAA9
:1024D00005F008FA0E4A00210E4805F03DFA0E4BB1
:1024E0000E4A002118600E4805F036FA0D4B1860B0
:1024F00005F012FAFEE700BF082A0020400100A004
:10250000C42A0020006801403C2A0020001001403D
:1025100064A90290E11F0090042A002040A90290C3
:102520007D090090002A00200268034B9A4201D1E5
:1025300001F006BC704700BF00100040FEE700003D
:102540000D4B82B00F216FF001001A6C42F08052E7
:102550001A641A6C02F080520092009A5A6C42F48B
:1025600080425A6400225B6C03F480430193019B18
:1025700002B001F01BBC00BF00380240026882B00C
:10258000084B9A420BD1D3F8302803F5006342F48C
:1025900080521A631B6B03F480530193019B02B0BA
:1025A000704700BF003002400E4B07B502689A42E8
:1025B00015D1A3F5F04305215A201A6B42F400020D
:1025C0001A6300221B6B03F400030193019B01F0CB
:1025D000EDFB5A2003B05DF804EB01F019BC03B029
:1025E0005DF804FB00B0024070B5ACB004461422A4
:1025F000002106A826F037F9842200210BA826F036
:1026000032F92268424B9A427FD1082305200B936E
:10261000642310930223CDE9113001230BA81593F5
:1026200003F060FD08B1FFF789FF3A4B0224002553
:102630000E265A6C06A9384842F080625A645A6CD9
:1026400002F080620192019A1A6B42F040021A6312
:102650001A6B02F040020292029A1A6B42F4007264
:102660001A631A6B02F400720392039A1A6B42F413
:1026700080621A631A6B02F480620492049A1A6BE5
:1026800042F480721A631B6B0A9603F480730593FD
:10269000059B4FF48043CDE90854CDE9063401F0A1
:1026A0003DFE4EF6FF7306A91C480A96CDE9063496
:1026B000CDE9085401F032FEF72306A918480A961E
:1026C000CDE90634CDE9085401F028FE4FF48053DB
:1026D00006A91148CDE906340923CDE908540A9327
:1026E00001F01CFE4FF4464306A90E480A96CDE9B8
:1026F0000634CDE9085401F011FE58202A46052180
:1027000001F054FB582001F083FB2CB070BD00BFDA
:1027100000680140003802400018024000240240D6
:10272000002802400020024010B5A8B00446142240
:10273000002102A826F097F88422002107A826F09D
:1027400092F82268164B9A4228D1402307A8079393
:1027500003F0C8FC08B1FFF7F1FE124B002112484C
:102760005A6C42F010025A645A6C02F01002009245
:10277000009A1A6B42F002021A63C0221B6B03F02C
:1027800002030193019B0223CDE902230323CDE938
:102790000413072302A9069301F0C0FD28B010BD61
:1027A000001001400038024000040240F0B5002350
:1027B00087B00393244B1E68002E43D101220227C9
:1027C00003250C241A6001A9204B21489A6B42F082
:1027D00001029A639B6B03F001030093009B4FF689
:1027E0008373CDE90454CDE9013701F097FD48F238
:1027F000331301A917480594CDE90137CDE90365E5
:1028000001F08CFD4CF2037301A913480594CDE946
:102810000137CDE9036501F081FD4FF63F0301A9C2
:102820000E480594CDE90137CDE9036501F076FD49
:102830002C2301A90A480594CDE90137CDE90365A8
:1028400001F06CFD07B0F0BDEC2E00200038024016
:102850000010024000180240000C02400014024028
:10286000001C024008B5124B1A6802BB01224FF649
:10287000837110481A60104A936B23F0010393632D
:1028800001F030FE48F233110C4801F02BFE4CF2FF
:1028900003710B4801F026FE4FF63F01094801F095
:1028A00021FE2C210848BDE8084001F01BBE08BDF0
:1028B000E82E0020001002400038024000180240BC
:1028C000000C024000140240001C0240214B1A6C14
:1028D00042F0100270B588B01A641B6C054601A95D
:1028E00003A803F010030293029B03F0DDFB069B99
:1028F0004BBB03F0B9FB184E184B336040F2E73383
:10290000F360174BB0FBF3F3013B304673600023D9
:102910003361B360B36104F00FF8044680B9304608
:1029200003F0D0FE044658B9362001F071FA0F2D9D
:102930000DD822462946362001F038FA094B1D6091
:10294000204608B070BD03F08FFB4000D3E70124A0
:10295000F6E700BF00380240F02E002000100040D3
:1029600040420F00980000207047FEE7FEE7FEE7B8
:10297000FEE77047014803F0E7BE00BFF02E0020DD
:10298000014802F00DBD00BF20250020014802F0E3
:10299000A3BA00BFC42A0020014801F0EFBB00BF6A
:1029A0006C2B00200120704708B526F01DF8162377
:1029B00003604FF0FF3008BD08B526F015F8162368
:1029C0000360FEE770B50D4614460E46731B9C422D
:1029D00001DC204670BDAFF3008006F8010BF5E77F
:1029E00070B50D4614460E46731B9C4201DC204612
:1029F00070BD16F8010BAFF30080F5E74FF0FF3024
:102A000070474FF4005300204B607047012070471F
:102A1000002070470A4A116808B5034609B90949F8
:102A200011601068694603448B4206D925F0DCFF2B
:102A30000C2303604FF0FF3008BD1360FCE700BFBC
:102A40003C2F002080B70120704710B504460421B8
:102A500024F066FD204610BD012908B506D00229E4
:102A600008D059B900F00CFC006808BD00F008FC63
:102A70004068FAE700F004FC8068F6E70020F4E71D
:102A8000004870479CA902900220704713B50024AB
:102A900051B1036801AA01948DF803409C680DF1BF
:102AA0000303A04702B010BD0846FBE7C08970478A
:102AB000008A7047C088704780887047807A00F02D
:102AC0007F007047807AC00970470020704700007F
:102AD0009FED010A704700BF00000000704770477B
:102AE00000F598730868496803C3704770477047DA
:102AF0004160704770477047064BC0F84801C0F806
:102B00004C310023C0F8503100F5A273C0F84031B9
:102B1000704700BFB92B00900123037270477047C4
:102B200010B441680346C2689B68541001EB620010
:102B3000D20748BF0A595DF8044B48BFD35818471D
:102B40000346406830B19A681AB9D86800F00100AD
:102B500070470120704710B504460C2124F0E0FCBA
:102B6000204610BD10B50446102124F0D9FC2046A3
:102B700010BD10B504464FF4AE7124F0D1FC2046D0
:102B800010BD10B512F084FA0368BDE81040DB6B8D
:102B9000184710B50446D0F8400158B10368DB6807
:102BA000984738B1D4F8400103689B6898470023E0
:102BB000C4F8403110BD00002DE9F14FD0E9556A4D
:102BC0000746B06803681B6A9847CF2805D8444B6E
:102BD000A321444A444825F0DFFB706803681B6A60
:102BE00098470F2803D8414BA4213E4AF2E7F068EA
:102BF00003681B6A98470B2803D83D4BA521394A27
:102C0000E8E7DFF8F49012F043FA043012F065FAC6
:102C1000D9F8000010B10368DB689847D9F80000C4
:102C200010B103681B689847DFF8D080D8F800001F
:102C300010B103685B699847D7F83C0110B103688D
:102C40005B689847D8F8000010B103681B68984784
:102C5000D7F83C0110B103689B689847F0680021E1
:102C60004FF0000B03685B6A9847224B0446C0F89C
:102C700004B080F808B059460360B06803685B6A26
:102C80009847054600F066FB7068594603685B6A22
:102C900098470646294600F03DFB331DC7F83C61C6
:102CA0002846C9F80040C8F80050CAF800302B6820
:102CB000C6F808A0DB68EE639847336830461B68A7
:102CC00098472146284614F099FB236820461B6943
:102CD0009847236820465B6901B0BDE8F04F18476C
:102CE000BA9B0290489C02901A9D0290619D0290AE
:102CF000049E029038AA029088AA012084AA01208A
:102D0000044B1B6893F858200AB1D86C00B9986836
:102D1000704700BF40AA012070B5164604460D4614
:102D200012F07CFA104B00211C60104B2360104BFA
:102D3000C4E951310F4B1868C4E953110368C4E961
:102D40004F119B68C4E955659847FFF7D9FF1CF000
:102D5000E0FAFFF7D5FF1CF057FBFFF7D1FF1CF09F
:102D60005FFB204670BD00BF94AA0120E4A9029039
:102D7000CCA9029040AA0120064BC0F84801C0F837
:102D80004C310023C0F8503100F5A273C0F8403137
:102D9000704700BFB92B0090406A7047806A704747
:102DA00070470B888A889BB2D20A10B54C88C169DB
:102DB00043EA044351F82200184410BD10B50446FC
:102DC000BAB1107B68B1537BD27A1B0203F4E06383
:102DD0001A43236A03EB82031A888A4202D193F9C9
:102DE000020010BD05D80138043380B20028F3D1A9
:102DF000F7E70020F5E710B504462C2124F090FBFE
:102E0000204610BD30B58BB00446BDF86050089523
:102E1000BDF85C5007959DF8505006959DF84C50B4
:102E200005959DF8485004959DF8445003959DF8EC
:102E3000405002959DF83C500195BDF838500095E2
:102E400013F036FF064B20462360159BE361169B6B
:102E50002362199B63621A9BA3620BB030BD00BF53
:102E60005CAA029070477047704770477047704780
:102E7000704710B50446D02124F052FB204610BD07
:102E8000036870B504461B6B1546984723682046B7
:102E900029465B6BBDE87040184770B504461D4677
:102EA000BDF91060FFF7ECFF2368294620469B6BB5
:102EB0009847236831462046DB6BBDE870401847D1
:102EC000094A4FF48071026000228184FF218262EE
:102ED00080F82610C0E90122C0E90322C0E90522DA
:102EE000C0E90722704700BF605A03902DE9F04304
:102EF000044685B0002514F0D5F82646334B04F17E
:102F00006C08E56346F8403B3046FFF7D9FF404682
:102F1000FFF7D6FF40F201134FF488792C4AA4F84A
:102F2000BC304FF6FF73C4F8982029462A46A4F80F
:102F3000C630A4F8C830304684F8CA30271DA4F83B
:102F4000CC304FF4F073C4F8C05084F8C450C4E9D6
:102F50002755C4E92955C4E92B55C4E92D55CDF8A9
:102F60000090FFF79AFF4FF07F4331463846A36643
:102F700004F198060DF002FA2A46294640464FF41D
:102F8000F073CDF80090FFF788FF4FF0FF33414614
:102F90003846C4F894300DF0F1F930466F22B9216B
:102FA000FFF76EFF012303AA02A93046A4F8CC3034
:102FB000ADF80C30ADF8085010F0FEF83846314648
:102FC0000DF0DCF9204605B0BDE8F083C4AA0290FC
:102FD000EC5903907047000030B5164D8FB02C6847
:102FE000BFF35B8F14F0010420D1284624F09AFA35
:102FF000E0B13F23012210490993104B1048089378
:10300000104B0A940594CDE906430423CDE903321D
:103010000A23CDE90B440093CDE90144FFF7F2FE0A
:10302000094825F0D7F9284624F088FA04480FB05B
:1030300030BD00BF402F0020780110902463039022
:10304000442F002030630390D52F0090704700007C
:1030500030B5164D8FB02C68BFF35B8F14F00104B0
:1030600020D1284624F05EFAE0B13F230122104926
:103070000993104B10480893104B0A940594CDE91E
:1030800006430423CDE903321423CDE90B44009316
:10309000CDE90144FFF7B6FE094825F09BF9284623
:1030A00024F04CFA04480FB030BD00BF702F002050
:1030B0008801109028630390742F002034630390DC
:1030C0004D3000907047000030B5164D8FB02C6821
:1030D000BFF35B8F14F0010420D1284624F022FABC
:1030E000E0B13F23012210490993104B1048089387
:1030F000104B0A940594CDE906430423CDE903322D
:103100002823CDE90B440093CDE90144FFF77AFE73
:10311000094825F05FF9284624F010FA04480FB05A
:1031200030BD00BFA02F0020980110902C630390A9
:10313000A42F002038630390C53000900020704712
:10314000002070470EB403B503AB002153F8042BE5
:10315000019313F02BF802B05DF804EB03B0704755
:103160000CB407B504AB53F8042B019313F01EF80D
:1031700003B05DF804EB02B070470000436C10B57B
:10318000044673B3038F2BB9184BC521184A19484D
:1031900025F002F9C38E00EB43035B8C0BB314F0F4
:1031A00027FE238F012B03D8134BCB21134AEEE7C5
:1031B000E28E40F63F10531C9BB2092B194688BF84
:1031C000A3F10A0104EB4101498C814209D10A2B88
:1031D00004EB420228BF0023508C04EB43035884C5
:1031E00051842046BDE8104014F004BDA79E029013
:1031F000B09E02905B9F0290A59F0290B39F0290A9
:1032000014F0C1BC38B518BB124B13481C681349E5
:10321000B4B1226822440260626822440A60A26853
:1032200014440F4B00221A8000F02AF8054600F0E3
:1032300025F80C4B1C600C4B1D600C4B188007E0F4
:103240000B4B03600B4B0B600B4B1C68002CE8D145
:1032500038BD00BFDC2F0020D42F0020D02F00204D
:10326000D82F002098AA0120A0AA01209CAA012002
:10327000AC011090A8011090B00110900020704790
:1032800000487047E02F002010B5054CFFF7E0FE26
:103290002060FFF719FF6060FFF79EFEA06010BD81
:1032A000E02F002010B5002404600C6014601C6046
:1032B00010BD704710B504464FF4AE7124F030F9DC
:1032C000204610BD10B50446D0F8580100F013F8A0
:1032D0002046BDE8104011F05DBF000010B5044667
:1032E000FFF71AFD014B2046236010BDF8AA02909B
:1032F000002202607047704770470438704770477B
:1033000010B50446102124F00BF9204610BDA0F1A1
:103310000400F5E70022C1608260024A02601832B0
:10332000426070474CAB029070470000034B10B5F1
:1033300004460360FFF79BFD204610BD74AB02906E
:1033400010B50446FFF7F2FFD021204624F0E8F83C
:10335000204610BD10B50446FFF7C8FD014B2046BE
:10336000236010BD74AB0290FFF782BD7047002050
:103370007047000013B500240221C0B28DF8074049
:1033800000F008FA8DF807009DF8073003F00F03EE
:103390008DF807309DF80730052B01D98DF80740CF
:1033A0009DF80720034B9DF807005A7000229A7081
:1033B00002B010BDEE2F00202DE9F74F2F4C15461F
:1033C0004FF000080F46A37862788DF807809A4284
:1033D0004DD9092B4ED803EB43035B00DBB2191D1B
:1033E00003F1030B03F1060A0533C9B25FFA8BFB45
:1033F0005FFA8AFA5FFA83F8C6B2DFF88490304643
:1034000000F0C8F98DF807009DF80730594630469E
:10341000A9F8003000F0BEF98DF8070051469DF87C
:1034200007303046B9F800201B0203F470631343E1
:103430003B80A9F8003000F0ADF98DF80700414657
:103440009DF807303046A9F8003000F0A3F98DF858
:1034500007009DF80730B9F800201B0203F47063E1
:103460001343A9F800302B80A3780133A37003B075
:10347000BDE8F08FC246C3464146BDE7EE2F0020AF
:10348000EC2F00200122A421C0B200F071B900226B
:10349000A421C0B200F06CB9FFF7F9BF10B5054C1C
:1034A000C82000F08DF923781BB900F05FF90123E3
:1034B000237010BDEE2F00207047000037B50023A9
:1034C0000F4C05468DF8073023781BB900F04EF9F4
:1034D000012323700324EDB2013CA821284600F00B
:1034E00059F914F0FF048DF807009DF80730DBB29E
:1034F00001D0512BF0D19DF8070003B030BD00BFC3
:10350000EE2F0020002313B50C46C0B201218DF828
:10351000073000F03FF98DF807009DF80730236071
:1035200002B010BD2DE9F3411D461D4B0024164687
:103530005B788DF807408B422CD909292DD801EBF7
:1035400041014C00E4B2E11CE71D0834C9B2FFB2EE
:10355000E4B25FFA80F8404600F01CF98DF80700ED
:103560009DF807303946089A40469B09136000F0E1
:1035700011F98DF807009DF8073021464046336069
:1035800000F008F98DF807009DF80720120902F0F5
:1035900004022A6002B0BDE8F08127462146D8E740
:1035A000EE2F002070B58AB0054601F0A5FB00287B
:1035B00040F096804B4B00264B4C9D426E610CBFF9
:1035C0004A4A4B4A9D422A604A4AC5E901264FF0C1
:1035D0000102C5E90766C5E90326236B43D143F021
:1035E000800380204FF0020C05A92363236B07960C
:1035F00003F080030193019B1223CDE9050304230B
:103600003D48CDE908C300F089FE4FF4807305A959
:103610003948059300F082FE236C32460F21482082
:1036200043F400032364236C03F400030293029B1E
:10363000236A43F400032362236A23F40003236212
:1036400000F0B4FB482000F0E3FB492032460F2194
:1036500000F0ACFB492000F0DBFB28460AB0BDE8D7
:10366000704001F021B943F002034FF4807202214F
:1036700022482363236B079603F002030393039B03
:103680001223CDE905230423CDE9081305A900F091
:1036900045FE4FF4007305A91848059300F03EFE5F
:1036A000236C32460F211F2043F400132364236C44
:1036B00003F400130493049B236A43F4001323626E
:1036C000236A23F40013236200F070FB1F2000F034
:1036D0009FFB202032460F2100F068FB2020BAE734
:1036E0000AB070BDF42F002000380240005C00409A
:1036F0000054004032279140001C02400004024068
:1037000030B54FF47A7485B005460294BDF8244074
:103710000194089C009401F037F9044628B128462A
:1037200001F018F92846FFF73DFF204605B030BDEF
:1037300030B54FF47A7485B005460294BDF8244044
:103740000194089C009401F0F9F9044628B1284638
:1037500001F000F92846FFF725FF204605B030BDEF
:103760000148FFF71FBF00BFF42F0020FFF7F8BF8D
:103770001FB58DF80F200DF10F02012300920A46AC
:10378000014601930248FFF7BBFF05B05DF804FB5B
:10379000F42F00201FB500230A460DF10F018DF80C
:1037A0000F3001230091014601930448FFF7C0FF49
:1037B0009DF80F0005B05DF804FB00BFF42F00205A
:1037C00000F0D0BA2DE9F743214C0126214D4FF0EE
:1037D00000081027214681464FF6FF722846CDF893
:1037E0000480C4E90067C4E9026802F033FF304690
:1037F00000F0B8FA022321464FF6FF722846C4E9CA
:103800000037C4E9026802F025FF032321464FF682
:10381000FF722846C4E900370823C4E9023802F0E1
:1038200019FF4FF4087321464FF6FF7201930423EA
:103830002846A660C4E90037019BE36002F00AFF56
:103840004946284603B0BDE8F04302F022BF00BF5E
:103850000831002034310020544B9A6B42F00102B1
:1038600070B58EB09A639A6B064609A9504802F06B
:103870000102504C00250192019A1A6B42F4800219
:103880001A631A6B02F480020292029A1A6B42F0D7
:1038900004021A631A6B02F004020392039A1A6B71
:1038A00042F008021A631A6B02F008020492049AAA
:1038B0001A6B42F010021A631A6B02F010020592A2
:1038C000059A1A6B42F020021A631A6B02F020026A
:1038D0000692069A1A6B42F040021A631A6B02F0C3
:1038E00040020792079A1A6B42F080021A63012283
:1038F0001B6B03F080030893089B0223CDE90A3277
:103900000C930C230D930823099300F007FD4CF250
:10391000037309A92848099300F000FD4FF683734B
:1039200009A92648099300F0F9FC4FF63F0309A9BD
:103930002348099300F0F2FC48F2331309A9214807
:10394000099300F0EBFC282309A91F48099300F014
:10395000E5FC80234FF400714FF4805025633463FD
:10396000E561A663C4E901534FF48063C4E903131E
:103970004FF48043C4E905034FF400332046C4E903
:1039800008350323C4E90A35104B236000F0A0FB7F
:10399000204600F01FFB2A460F21382000F006FACF
:1039A000382000F035FA0EB070BD00BF003802407C
:1039B00000080240A8300020000C02400010024025
:1039C0000014024000180240001C02401064024033
:1039D00038B5194C0721194B0422194D4FF40060DA
:1039E00023600223E260AB61C5E90031C5E9022131
:1039F000C5E90433102240230021C4E904234FF415
:103A00008073A162C4E906314FF48053C4E908030E
:103A10002046C4E90111FFF71FFF29462046094C43
:103A200002F0EAFD003818BF0120207040F2036068
